{
  "contractName": "ERC165",
  "abi": [
    {
      "inputs": [],
      "stateMutability": "nonpayable",
      "type": "constructor"
    },
    {
      "inputs": [
        {
          "internalType": "bytes4",
          "name": "interfaceID",
          "type": "bytes4"
        }
      ],
      "name": "supportsInterface",
      "outputs": [
        {
          "internalType": "bool",
          "name": "",
          "type": "bool"
        }
      ],
      "stateMutability": "view",
      "type": "function"
    }
  ],
  "bytecode": "0x608060405234801561001057600080fd5b506100407f01ffc9a7a5cef8baa21ed3c5c0d7e23accb804b619e9333b597f47a0d84076e261004560201b60201c565b6101bc565b63ffffffff60e01b817bffffffffffffffffffffffffffffffffffffffffffffffffffffffff1916036100ad576040517f08c379a00000000000000000000000000000000000000000000000000000000081526004016100a49061019c565b60405180910390fd5b6001600080837bffffffffffffffffffffffffffffffffffffffffffffffffffffffff19167bffffffffffffffffffffffffffffffffffffffffffffffffffffffff1916815260200190815260200160002060006101000a81548160ff02191690831515021790555050565b600082825260208201905092915050565b7f455243313635202d20496e7661696c6420696e7465726661636520726571756560008201527f7374210000000000000000000000000000000000000000000000000000000000602082015250565b6000610186602383610119565b91506101918261012a565b604082019050919050565b600060208201905081810360008301526101b581610179565b9050919050565b6101bd806101cb6000396000f3fe608060405234801561001057600080fd5b506004361061002b5760003560e01c806301ffc9a714610030575b600080fd5b61004a60048036038101906100459190610124565b610060565b604051610057919061016c565b60405180910390f35b6000806000837bffffffffffffffffffffffffffffffffffffffffffffffffffffffff19167bffffffffffffffffffffffffffffffffffffffffffffffffffffffff1916815260200190815260200160002060009054906101000a900460ff169050919050565b600080fd5b60007fffffffff0000000000000000000000000000000000000000000000000000000082169050919050565b610101816100cc565b811461010c57600080fd5b50565b60008135905061011e816100f8565b92915050565b60006020828403121561013a576101396100c7565b5b60006101488482850161010f565b91505092915050565b60008115159050919050565b61016681610151565b82525050565b6000602082019050610181600083018461015d565b9291505056fea26469706673582212209192ea757f9bd529f20ba07cb7a1a11fa4b9cd0ffaf2d30db72f6e27155b19a164736f6c63430008130033",
  "immutableReferences": {},
  "source": "// SPDX-License-Identifier: MIT\r\npragma solidity ^0.8.0;\r\n\r\nimport './interfaces/IERC165.sol';\r\n\r\n\r\ncontract ERC165 is IERC165{\r\n    \r\n        mapping(bytes4 => bool) private _supportedInterfaces;\r\n\r\n        //  \r\n        constructor(){\r\n            _registerInterface(bytes4(keccak256('supportsInterface(bytes4)')));\r\n        }\r\n\r\n        function supportsInterface(bytes4 interfaceID) external override view returns (bool){\r\n            return _supportedInterfaces[interfaceID];\r\n        }\r\n\r\n        function _registerInterface(bytes4 interfaceId) internal{\r\n            require(interfaceId != 0xffffffff, 'ERC165 - Invaild interface request!' );\r\n            _supportedInterfaces[interfaceId] = true;\r\n        }\r\n        \r\n}",
  "sourcePath": "C:\\Users\\wkdeh\\Desktop\\NFT_market\\src\\contracts\\ERC165.sol",
  "compiler": {
    "name": "solc",
    "version": "0.8.19+commit.7dd6d404.Emscripten.clang"
  },
  "schemaVersion": "3.4.14",
  "updatedAt": "2023-06-22T17:48:29.990Z",
  "devdoc": {
    "kind": "dev",
    "methods": {
      "supportsInterface(bytes4)": {
        "details": "Interface identification is specified in ERC-165. This function  uses less than 30,000 gas.",
        "params": {
          "interfaceID": "The interface identifier, as specified in ERC-165"
        },
        "returns": {
          "_0": "`true` if the contract implements `interfaceID` and  `interfaceID` is not 0xffffffff, `false` otherwise"
        }
      }
    },
    "version": 1
  },
  "userdoc": {
    "kind": "user",
    "methods": {
      "supportsInterface(bytes4)": {
        "notice": "Query if a contract implements an interface"
      }
    },
    "version": 1
  }
}