{
  "contractName": "ERC721Connector",
  "abi": [
    {
      "inputs": [
        {
          "internalType": "string",
          "name": "name",
          "type": "string"
        },
        {
          "internalType": "string",
          "name": "symbol",
          "type": "string"
        }
      ],
      "stateMutability": "nonpayable",
      "type": "constructor"
    },
    {
      "anonymous": false,
      "inputs": [
        {
          "indexed": true,
          "internalType": "address",
          "name": "from",
          "type": "address"
        },
        {
          "indexed": true,
          "internalType": "address",
          "name": "to",
          "type": "address"
        },
        {
          "indexed": true,
          "internalType": "uint256",
          "name": "tokenId",
          "type": "uint256"
        }
      ],
      "name": "Transfer",
      "type": "event"
    },
    {
      "inputs": [
        {
          "internalType": "address",
          "name": "_owner",
          "type": "address"
        }
      ],
      "name": "balanceOf",
      "outputs": [
        {
          "internalType": "uint256",
          "name": "",
          "type": "uint256"
        }
      ],
      "stateMutability": "view",
      "type": "function"
    },
    {
      "inputs": [],
      "name": "name",
      "outputs": [
        {
          "internalType": "string",
          "name": "",
          "type": "string"
        }
      ],
      "stateMutability": "view",
      "type": "function"
    },
    {
      "inputs": [
        {
          "internalType": "uint256",
          "name": "_tokenId",
          "type": "uint256"
        }
      ],
      "name": "ownerOf",
      "outputs": [
        {
          "internalType": "address",
          "name": "",
          "type": "address"
        }
      ],
      "stateMutability": "view",
      "type": "function"
    },
    {
      "inputs": [],
      "name": "symbol",
      "outputs": [
        {
          "internalType": "string",
          "name": "",
          "type": "string"
        }
      ],
      "stateMutability": "view",
      "type": "function"
    },
    {
      "inputs": [
        {
          "internalType": "uint256",
          "name": "_index",
          "type": "uint256"
        }
      ],
      "name": "tokenByIndex",
      "outputs": [
        {
          "internalType": "uint256",
          "name": "",
          "type": "uint256"
        }
      ],
      "stateMutability": "view",
      "type": "function"
    },
    {
      "inputs": [
        {
          "internalType": "address",
          "name": "_owner",
          "type": "address"
        },
        {
          "internalType": "uint256",
          "name": "_index",
          "type": "uint256"
        }
      ],
      "name": "tokenOfOwnerByIndex",
      "outputs": [
        {
          "internalType": "uint256",
          "name": "",
          "type": "uint256"
        }
      ],
      "stateMutability": "view",
      "type": "function"
    },
    {
      "inputs": [],
      "name": "totalSupply",
      "outputs": [
        {
          "internalType": "uint256",
          "name": "",
          "type": "uint256"
        }
      ],
      "stateMutability": "view",
      "type": "function"
    }
  ],
  "bytecode": "0x60806040523480156200001157600080fd5b5060405162000dac38038062000dac8339818101604052810190620000379190620001fa565b818181600090816200004a9190620004ca565b5080600190816200005c9190620004ca565b5050505050620005b1565b6000604051905090565b600080fd5b600080fd5b600080fd5b600080fd5b6000601f19601f8301169050919050565b7f4e487b7100000000000000000000000000000000000000000000000000000000600052604160045260246000fd5b620000d08262000085565b810181811067ffffffffffffffff82111715620000f257620000f162000096565b5b80604052505050565b60006200010762000067565b9050620001158282620000c5565b919050565b600067ffffffffffffffff82111562000138576200013762000096565b5b620001438262000085565b9050602081019050919050565b60005b838110156200017057808201518184015260208101905062000153565b60008484015250505050565b6000620001936200018d846200011a565b620000fb565b905082815260208101848484011115620001b257620001b162000080565b5b620001bf84828562000150565b509392505050565b600082601f830112620001df57620001de6200007b565b5b8151620001f18482602086016200017c565b91505092915050565b6000806040838503121562000214576200021362000071565b5b600083015167ffffffffffffffff81111562000235576200023462000076565b5b6200024385828601620001c7565b925050602083015167ffffffffffffffff81111562000267576200026662000076565b5b6200027585828601620001c7565b9150509250929050565b600081519050919050565b7f4e487b7100000000000000000000000000000000000000000000000000000000600052602260045260246000fd5b60006002820490506001821680620002d257607f821691505b602082108103620002e857620002e76200028a565b5b50919050565b60008190508160005260206000209050919050565b60006020601f8301049050919050565b600082821b905092915050565b600060088302620003527fffffffffffffffffffffffffffffffffffffffffffffffffffffffffffffffff8262000313565b6200035e868362000313565b95508019841693508086168417925050509392505050565b6000819050919050565b6000819050919050565b6000620003ab620003a56200039f8462000376565b62000380565b62000376565b9050919050565b6000819050919050565b620003c7836200038a565b620003df620003d682620003b2565b84845462000320565b825550505050565b600090565b620003f6620003e7565b62000403818484620003bc565b505050565b5b818110156200042b576200041f600082620003ec565b60018101905062000409565b5050565b601f8211156200047a576200044481620002ee565b6200044f8462000303565b810160208510156200045f578190505b620004776200046e8562000303565b83018262000408565b50505b505050565b600082821c905092915050565b60006200049f600019846008026200047f565b1980831691505092915050565b6000620004ba83836200048c565b9150826002028217905092915050565b620004d5826200027f565b67ffffffffffffffff811115620004f157620004f062000096565b5b620004fd8254620002b9565b6200050a8282856200042f565b600060209050601f8311600181146200054257600084156200052d578287015190505b620005398582620004ac565b865550620005a9565b601f1984166200055286620002ee565b60005b828110156200057c5784890151825560018201915060208501945060208101905062000555565b868310156200059c578489015162000598601f8916826200048c565b8355505b6001600288020188555050505b505050505050565b6107eb80620005c16000396000f3fe608060405234801561001057600080fd5b506004361061007d5760003560e01c80634f6ccce71161005b5780634f6ccce7146100ee5780636352211e1461011e57806370a082311461014e57806395d89b411461017e5761007d565b806306fdde031461008257806318160ddd146100a05780632f745c59146100be575b600080fd5b61008a61019c565b60405161009791906104d4565b60405180910390f35b6100a861022e565b6040516100b5919061050f565b60405180910390f35b6100d860048036038101906100d391906105b9565b61023b565b6040516100e5919061050f565b60405180910390f35b610108600480360381019061010391906105f9565b610243565b604051610115919061050f565b60405180910390f35b610138600480360381019061013391906105f9565b61024a565b6040516101459190610635565b60405180910390f35b61016860048036038101906101639190610650565b6102fb565b604051610175919061050f565b60405180910390f35b6101866103b2565b60405161019391906104d4565b60405180910390f35b6060600080546101ab906106ac565b80601f01602080910402602001604051908101604052809291908181526020018280546101d7906106ac565b80156102245780601f106101f957610100808354040283529160200191610224565b820191906000526020600020905b81548152906001019060200180831161020757829003601f168201915b5050505050905090565b6000600480549050905090565b600092915050565b6000919050565b6000806002600084815260200190815260200160002060009054906101000a900473ffffffffffffffffffffffffffffffffffffffff169050600073ffffffffffffffffffffffffffffffffffffffff168173ffffffffffffffffffffffffffffffffffffffff16036102f2576040517f08c379a00000000000000000000000000000000000000000000000000000000081526004016102e990610729565b60405180910390fd5b80915050919050565b60008073ffffffffffffffffffffffffffffffffffffffff168273ffffffffffffffffffffffffffffffffffffffff160361036b576040517f08c379a000000000000000000000000000000000000000000000000000000000815260040161036290610795565b60405180910390fd5b600360008373ffffffffffffffffffffffffffffffffffffffff1673ffffffffffffffffffffffffffffffffffffffff168152602001908152602001600020549050919050565b6060600180546103c1906106ac565b80601f01602080910402602001604051908101604052809291908181526020018280546103ed906106ac565b801561043a5780601f1061040f5761010080835404028352916020019161043a565b820191906000526020600020905b81548152906001019060200180831161041d57829003601f168201915b5050505050905090565b600081519050919050565b600082825260208201905092915050565b60005b8381101561047e578082015181840152602081019050610463565b60008484015250505050565b6000601f19601f8301169050919050565b60006104a682610444565b6104b0818561044f565b93506104c0818560208601610460565b6104c98161048a565b840191505092915050565b600060208201905081810360008301526104ee818461049b565b905092915050565b6000819050919050565b610509816104f6565b82525050565b60006020820190506105246000830184610500565b92915050565b600080fd5b600073ffffffffffffffffffffffffffffffffffffffff82169050919050565b600061055a8261052f565b9050919050565b61056a8161054f565b811461057557600080fd5b50565b60008135905061058781610561565b92915050565b610596816104f6565b81146105a157600080fd5b50565b6000813590506105b38161058d565b92915050565b600080604083850312156105d0576105cf61052a565b5b60006105de85828601610578565b92505060206105ef858286016105a4565b9150509250929050565b60006020828403121561060f5761060e61052a565b5b600061061d848285016105a4565b91505092915050565b61062f8161054f565b82525050565b600060208201905061064a6000830184610626565b92915050565b6000602082840312156106665761066561052a565b5b600061067484828501610578565b91505092915050565b7f4e487b7100000000000000000000000000000000000000000000000000000000600052602260045260246000fd5b600060028204905060018216806106c457607f821691505b6020821081036106d7576106d661067d565b5b50919050565b7f6f776e657220717565727920666f72204e4f4e452d657869737420746f6b656e600082015250565b600061071360208361044f565b915061071e826106dd565b602082019050919050565b6000602082019050818103600083015261074281610706565b9050919050565b7f6f776e657220717565727920666f72204e4f4e45657869737420746f6b656e00600082015250565b600061077f601f8361044f565b915061078a82610749565b602082019050919050565b600060208201905081810360008301526107ae81610772565b905091905056fea2646970667358221220bb403bb2097ff6da62a9ce9cc3ba2f2f6e00ef52e5930e6befbdd9ea8a7407c164736f6c63430008130033",
  "immutableReferences": {},
  "source": "// SPDX-License-Identifier: MIT\r\npragma solidity ^0.8.0;\r\n\r\nimport './ERC721Metadate.sol';\r\nimport './ERC721.sol';\r\nimport './ERC721Enumerable.sol';\r\n\r\n//   721   ->\r\n// ERC721Enumerable ERC721   ERC721Enumerable  \r\n//  \r\ncontract ERC721Connector is ERC721Metadata, ERC721Enumerable{\r\n    \r\n    constructor(string memory name, string memory symbol) ERC721Metadata(name, symbol) {\r\n\r\n    }\r\n}",
  "sourcePath": "C:\\Users\\wkdeh\\Desktop\\NFT_market\\src\\contracts\\ERC721Connector.sol",
  "compiler": {
    "name": "solc",
    "version": "0.8.19+commit.7dd6d404.Emscripten.clang"
  },
  "schemaVersion": "3.4.14",
  "updatedAt": "2023-06-21T19:51:20.926Z",
  "devdoc": {
    "kind": "dev",
    "methods": {},
    "version": 1
  },
  "userdoc": {
    "kind": "user",
    "methods": {},
    "version": 1
  }
}