{
  "contractName": "ERC721Enumerable",
  "abi": [
    {
      "inputs": [],
      "stateMutability": "nonpayable",
      "type": "constructor"
    },
    {
      "anonymous": false,
      "inputs": [
        {
          "indexed": true,
          "internalType": "address",
          "name": "_from",
          "type": "address"
        },
        {
          "indexed": true,
          "internalType": "address",
          "name": "_to",
          "type": "address"
        },
        {
          "indexed": true,
          "internalType": "uint256",
          "name": "_tokenId",
          "type": "uint256"
        }
      ],
      "name": "Transfer",
      "type": "event"
    },
    {
      "inputs": [
        {
          "internalType": "address",
          "name": "_owner",
          "type": "address"
        }
      ],
      "name": "balanceOf",
      "outputs": [
        {
          "internalType": "uint256",
          "name": "",
          "type": "uint256"
        }
      ],
      "stateMutability": "view",
      "type": "function"
    },
    {
      "inputs": [
        {
          "internalType": "uint256",
          "name": "_tokenId",
          "type": "uint256"
        }
      ],
      "name": "ownerOf",
      "outputs": [
        {
          "internalType": "address",
          "name": "",
          "type": "address"
        }
      ],
      "stateMutability": "view",
      "type": "function"
    },
    {
      "inputs": [
        {
          "internalType": "bytes4",
          "name": "interfaceID",
          "type": "bytes4"
        }
      ],
      "name": "supportsInterface",
      "outputs": [
        {
          "internalType": "bool",
          "name": "",
          "type": "bool"
        }
      ],
      "stateMutability": "view",
      "type": "function"
    },
    {
      "inputs": [
        {
          "internalType": "address",
          "name": "_from",
          "type": "address"
        },
        {
          "internalType": "address",
          "name": "_to",
          "type": "address"
        },
        {
          "internalType": "uint256",
          "name": "_tokenId",
          "type": "uint256"
        }
      ],
      "name": "transferFrom",
      "outputs": [],
      "stateMutability": "nonpayable",
      "type": "function"
    },
    {
      "inputs": [
        {
          "internalType": "uint256",
          "name": "index",
          "type": "uint256"
        }
      ],
      "name": "tokenByIndex",
      "outputs": [
        {
          "internalType": "uint256",
          "name": "",
          "type": "uint256"
        }
      ],
      "stateMutability": "view",
      "type": "function"
    },
    {
      "inputs": [
        {
          "internalType": "address",
          "name": "owner",
          "type": "address"
        },
        {
          "internalType": "uint256",
          "name": "index",
          "type": "uint256"
        }
      ],
      "name": "tokenOfOwnerByIndex",
      "outputs": [
        {
          "internalType": "uint256",
          "name": "",
          "type": "uint256"
        }
      ],
      "stateMutability": "view",
      "type": "function"
    },
    {
      "inputs": [],
      "name": "totalSupply",
      "outputs": [
        {
          "internalType": "uint256",
          "name": "",
          "type": "uint256"
        }
      ],
      "stateMutability": "view",
      "type": "function"
    }
  ],
  "bytecode": "0x608060405234801561001057600080fd5b506100407f01ffc9a7a5cef8baa21ed3c5c0d7e23accb804b619e9333b597f47a0d84076e261012b60201b60201c565b6100b37f22c82707ba960a14c7592ffb6b8cfaa073fed0048a84cc7fa41f6b5bd8e7f2e47f15725c1ab0554773cbe3abaa8e0afa8455704d1d0f38179f07d62f84e389cbd67f8a7e378434598edc36d108689a030cbc9d7d465de4f74c71bae1028eed6a881b181861012b60201b60201c565b6101267f8230223f691b981717299fae9549350a0d894555723531f02108b1f522c1a7977f6da5e1284143cdd2d15038a59bde3be031250f00291d64494c12d967b3a4e0c37fc53637662700e6c65104059db8bba34439e0c32483ab7c34e3ccae52c7395495181861012b60201b60201c565b6102a2565b63ffffffff60e01b817bffffffffffffffffffffffffffffffffffffffffffffffffffffffff191603610193576040517f08c379a000000000000000000000000000000000000000000000000000000000815260040161018a90610282565b60405180910390fd5b6001600080837bffffffffffffffffffffffffffffffffffffffffffffffffffffffff19167bffffffffffffffffffffffffffffffffffffffffffffffffffffffff1916815260200190815260200160002060006101000a81548160ff02191690831515021790555050565b600082825260208201905092915050565b7f455243313635202d20496e7661696c6420696e7465726661636520726571756560008201527f7374210000000000000000000000000000000000000000000000000000000000602082015250565b600061026c6023836101ff565b915061027782610210565b604082019050919050565b6000602082019050818103600083015261029b8161025f565b9050919050565b610d74806102b16000396000f3fe608060405234801561001057600080fd5b506004361061007d5760003560e01c80632f745c591161005b5780632f745c59146100ec5780634f6ccce71461011c5780636352211e1461014c57806370a082311461017c5761007d565b806301ffc9a71461008257806318160ddd146100b257806323b872dd146100d0575b600080fd5b61009c6004803603810190610097919061075b565b6101ac565b6040516100a991906107a3565b60405180910390f35b6100ba610213565b6040516100c791906107d7565b60405180910390f35b6100ea60048036038101906100e5919061087c565b610220565b005b610106600480360381019061010191906108cf565b610230565b60405161011391906107d7565b60405180910390f35b6101366004803603810190610131919061090f565b6102e0565b60405161014391906107d7565b60405180910390f35b6101666004803603810190610161919061090f565b610351565b604051610173919061094b565b60405180910390f35b61019660048036038101906101919190610966565b610402565b6040516101a391906107d7565b60405180910390f35b6000806000837bffffffffffffffffffffffffffffffffffffffffffffffffffffffff19167bffffffffffffffffffffffffffffffffffffffffffffffffffffffff1916815260200190815260200160002060009054906101000a900460ff169050919050565b6000600480549050905090565b61022b8383836104b9565b505050565b600061023b83610402565b821061027c576040517f08c379a0000000000000000000000000000000000000000000000000000000008152600401610273906109f0565b60405180910390fd5b600660008473ffffffffffffffffffffffffffffffffffffffff1673ffffffffffffffffffffffffffffffffffffffff16815260200190815260200160002082815481106102cd576102cc610a10565b5b9060005260206000200154905092915050565b60006102ea610213565b821061032b576040517f08c379a000000000000000000000000000000000000000000000000000000000815260040161032290610a8b565b60405180910390fd5b6004828154811061033f5761033e610a10565b5b90600052602060002001549050919050565b6000806001600084815260200190815260200160002060009054906101000a900473ffffffffffffffffffffffffffffffffffffffff169050600073ffffffffffffffffffffffffffffffffffffffff168173ffffffffffffffffffffffffffffffffffffffff16036103f9576040517f08c379a00000000000000000000000000000000000000000000000000000000081526004016103f090610af7565b60405180910390fd5b80915050919050565b60008073ffffffffffffffffffffffffffffffffffffffff168273ffffffffffffffffffffffffffffffffffffffff1603610472576040517f08c379a000000000000000000000000000000000000000000000000000000000815260040161046990610b63565b60405180910390fd5b600260008373ffffffffffffffffffffffffffffffffffffffff1673ffffffffffffffffffffffffffffffffffffffff168152602001908152602001600020549050919050565b600073ffffffffffffffffffffffffffffffffffffffff168273ffffffffffffffffffffffffffffffffffffffff1603610528576040517f08c379a000000000000000000000000000000000000000000000000000000000815260040161051f90610bf5565b60405180910390fd5b8273ffffffffffffffffffffffffffffffffffffffff1661054882610351565b73ffffffffffffffffffffffffffffffffffffffff161461059e576040517f08c379a000000000000000000000000000000000000000000000000000000000815260040161059590610c87565b60405180910390fd5b6001600260008573ffffffffffffffffffffffffffffffffffffffff1673ffffffffffffffffffffffffffffffffffffffff16815260200190815260200160002060008282546105ee9190610cd6565b925050819055506001600260008473ffffffffffffffffffffffffffffffffffffffff1673ffffffffffffffffffffffffffffffffffffffff16815260200190815260200160002060008282546106459190610d0a565b92505081905550816001600083815260200190815260200160002060006101000a81548173ffffffffffffffffffffffffffffffffffffffff021916908373ffffffffffffffffffffffffffffffffffffffff160217905550808273ffffffffffffffffffffffffffffffffffffffff168473ffffffffffffffffffffffffffffffffffffffff167fddf252ad1be2c89b69c2b068fc378daa952ba7f163c4a11628f55a4df523b3ef60405160405180910390a4505050565b600080fd5b60007fffffffff0000000000000000000000000000000000000000000000000000000082169050919050565b61073881610703565b811461074357600080fd5b50565b6000813590506107558161072f565b92915050565b600060208284031215610771576107706106fe565b5b600061077f84828501610746565b91505092915050565b60008115159050919050565b61079d81610788565b82525050565b60006020820190506107b86000830184610794565b92915050565b6000819050919050565b6107d1816107be565b82525050565b60006020820190506107ec60008301846107c8565b92915050565b600073ffffffffffffffffffffffffffffffffffffffff82169050919050565b600061081d826107f2565b9050919050565b61082d81610812565b811461083857600080fd5b50565b60008135905061084a81610824565b92915050565b610859816107be565b811461086457600080fd5b50565b60008135905061087681610850565b92915050565b600080600060608486031215610895576108946106fe565b5b60006108a38682870161083b565b93505060206108b48682870161083b565b92505060406108c586828701610867565b9150509250925092565b600080604083850312156108e6576108e56106fe565b5b60006108f48582860161083b565b925050602061090585828601610867565b9150509250929050565b600060208284031215610925576109246106fe565b5b600061093384828501610867565b91505092915050565b61094581610812565b82525050565b6000602082019050610960600083018461093c565b92915050565b60006020828403121561097c5761097b6106fe565b5b600061098a8482850161083b565b91505092915050565b600082825260208201905092915050565b7f6f776e657220696e646578206973206e6f74206f6620626f756e647321000000600082015250565b60006109da601d83610993565b91506109e5826109a4565b602082019050919050565b60006020820190508181036000830152610a09816109cd565b9050919050565b7f4e487b7100000000000000000000000000000000000000000000000000000000600052603260045260246000fd5b7f676c6f62616c20696e646578206973206e6f74206f6620626f756e6473210000600082015250565b6000610a75601e83610993565b9150610a8082610a3f565b602082019050919050565b60006020820190508181036000830152610aa481610a68565b9050919050565b7f6f776e657220717565727920666f72204e4f4e452d657869737420746f6b656e600082015250565b6000610ae1602083610993565b9150610aec82610aab565b602082019050919050565b60006020820190508181036000830152610b1081610ad4565b9050919050565b7f6f776e657220717565727920666f72204e4f4e45657869737420746f6b656e00600082015250565b6000610b4d601f83610993565b9150610b5882610b17565b602082019050919050565b60006020820190508181036000830152610b7c81610b40565b9050919050565b7f4552524f52202d20455243373231205472616e7366657220746f20746865207a60008201527f65726f2061646472657373210000000000000000000000000000000000000000602082015250565b6000610bdf602c83610993565b9150610bea82610b83565b604082019050919050565b60006020820190508181036000830152610c0e81610bd2565b9050919050565b7f547279696e6720746f207472616e73666572206120746f6b656e20746865206160008201527f64647265737320646f7365206e6f74206f776e21000000000000000000000000602082015250565b6000610c71603483610993565b9150610c7c82610c15565b604082019050919050565b60006020820190508181036000830152610ca081610c64565b9050919050565b7f4e487b7100000000000000000000000000000000000000000000000000000000600052601160045260246000fd5b6000610ce1826107be565b9150610cec836107be565b9250828203905081811115610d0457610d03610ca7565b5b92915050565b6000610d15826107be565b9150610d20836107be565b9250828201905080821115610d3857610d37610ca7565b5b9291505056fea26469706673582212206987a6df9609f505c4af4682db8c6a8c5d6fd5eca682b82545636a06fd546f5164736f6c63430008130033",
  "immutableReferences": {},
  "source": "// SPDX-License-Identifier: MIT\r\npragma solidity ^0.8.0;\r\n\r\nimport './ERC721.sol';\r\nimport './interfaces/IERC721Enumerable.sol';\r\n\r\n\r\n// enumerable - enum     . \r\n//   '        '\r\ncontract ERC721Enumerable is IERC721Enumerable, ERC721 {\r\n\r\n    uint256[] private _allTokens;\r\n\r\n    // public external     private \r\n    // tokenId _allTokens  \r\n    // ex)      \r\n    mapping(uint256 => uint256) private _allTokensIndex;\r\n\r\n    //    tokenid   -      .\r\n    //  - ID   -  ==  NFT\r\n    mapping (address => uint256[]) private _ownedTokens;\r\n\r\n    //  ()   \r\n    // ID    \r\n    // ID    \r\n    mapping(uint256 => uint256) private _ownedTokensIndex;\r\n\r\n        constructor(){\r\n        _registerInterface(bytes4(keccak256('totalSupply(bytes4)')^\r\n                                    keccak256('tokenByIndex(bytes4)')^\r\n                                    keccak256('tokenOfOwnerByIndex(bytes4)')));\r\n    }\r\n\r\n    // ERC721  _mint \r\n    function _mint(address to, uint256 tokenId) internal override(ERC721){\r\n        super._mint(to, tokenId);\r\n\r\n        // 1.    \r\n        // 2. totalSupply   - allTokens\r\n        _addTokensToAllTokenEnumeration(tokenId);\r\n        _addTokensToOwnerEnumeration(to, tokenId);\r\n    }\r\n\r\n    //   ,     \r\n    // _allTokens       \r\n    function _addTokensToAllTokenEnumeration(uint256 tokenId) private {\r\n        _allTokensIndex[tokenId] = _allTokens.length;\r\n        _allTokens.push(tokenId);\r\n    }\r\n\r\n    function _addTokensToOwnerEnumeration(address to, uint256 tokenId) private {\r\n        // 1. _ownedTokens  ID \r\n        // 2. _ownedTokensIndex tokenId    \r\n        // 3.   \r\n        _ownedTokensIndex[tokenId] = _ownedTokens[to].length;\r\n        _ownedTokens[to].push(tokenId);\r\n    }\r\n\r\n    // tokenByIndex  , tokenByOwnerIndex  \r\n    //    ID  \r\n    function tokenByIndex(uint256 index) public override view returns(uint256){\r\n        //  <     \r\n        require(index < totalSupply(), 'global index is not of bounds!');\r\n        return _allTokens[index];\r\n    }\r\n\r\n    function tokenOfOwnerByIndex(address owner, uint256 index) public override view returns (uint256){\r\n       //   nft  >      \r\n       require(index < balanceOf(owner), 'owner index is not of bounds!');\r\n       return _ownedTokens[owner][index];\r\n    }\r\n\r\n    // public   private  _allTokens   \r\n    // _allTokens   ==   \r\n    function totalSupply() public override view returns(uint256){\r\n        return _allTokens.length;\r\n    }\r\n\r\n}",
  "sourcePath": "C:\\Users\\wkdeh\\Desktop\\NFT_market\\src\\contracts\\ERC721Enumerable.sol",
  "compiler": {
    "name": "solc",
    "version": "0.8.19+commit.7dd6d404.Emscripten.clang"
  },
  "schemaVersion": "3.4.14",
  "updatedAt": "2023-06-24T17:59:51.238Z",
  "devdoc": {
    "kind": "dev",
    "methods": {
      "supportsInterface(bytes4)": {
        "details": "Interface identification is specified in ERC-165. This function  uses less than 30,000 gas.",
        "params": {
          "interfaceID": "The interface identifier, as specified in ERC-165"
        },
        "returns": {
          "_0": "`true` if the contract implements `interfaceID` and  `interfaceID` is not 0xffffffff, `false` otherwise"
        }
      }
    },
    "version": 1
  },
  "userdoc": {
    "kind": "user",
    "methods": {
      "supportsInterface(bytes4)": {
        "notice": "Query if a contract implements an interface"
      }
    },
    "version": 1
  }
}