{
  "contractName": "ERC721",
  "abi": [
    {
      "anonymous": false,
      "inputs": [
        {
          "indexed": true,
          "internalType": "address",
          "name": "from",
          "type": "address"
        },
        {
          "indexed": true,
          "internalType": "address",
          "name": "to",
          "type": "address"
        },
        {
          "indexed": true,
          "internalType": "uint256",
          "name": "tokenId",
          "type": "uint256"
        }
      ],
      "name": "Transfer",
      "type": "event"
    },
    {
      "inputs": [
        {
          "internalType": "address",
          "name": "_owner",
          "type": "address"
        }
      ],
      "name": "balanceOf",
      "outputs": [
        {
          "internalType": "uint256",
          "name": "",
          "type": "uint256"
        }
      ],
      "stateMutability": "view",
      "type": "function"
    },
    {
      "inputs": [
        {
          "internalType": "uint256",
          "name": "_tokenId",
          "type": "uint256"
        }
      ],
      "name": "ownerOf",
      "outputs": [
        {
          "internalType": "address",
          "name": "",
          "type": "address"
        }
      ],
      "stateMutability": "view",
      "type": "function"
    },
    {
      "inputs": [
        {
          "internalType": "address",
          "name": "_from",
          "type": "address"
        },
        {
          "internalType": "address",
          "name": "_to",
          "type": "address"
        },
        {
          "internalType": "uint256",
          "name": "_tokenId",
          "type": "uint256"
        }
      ],
      "name": "transferFrom",
      "outputs": [],
      "stateMutability": "nonpayable",
      "type": "function"
    }
  ],
  "bytecode": "0x608060405234801561001057600080fd5b506108ef806100206000396000f3fe608060405234801561001057600080fd5b50600436106100415760003560e01c806323b872dd146100465780636352211e1461006257806370a0823114610092575b600080fd5b610060600480360381019061005b9190610514565b6100c2565b005b61007c60048036038101906100779190610567565b6100d2565b60405161008991906105a3565b60405180910390f35b6100ac60048036038101906100a791906105be565b610182565b6040516100b991906105fa565b60405180910390f35b6100cd838383610239565b505050565b60008060008084815260200190815260200160002060009054906101000a900473ffffffffffffffffffffffffffffffffffffffff169050600073ffffffffffffffffffffffffffffffffffffffff168173ffffffffffffffffffffffffffffffffffffffff1603610179576040517f08c379a000000000000000000000000000000000000000000000000000000000815260040161017090610672565b60405180910390fd5b80915050919050565b60008073ffffffffffffffffffffffffffffffffffffffff168273ffffffffffffffffffffffffffffffffffffffff16036101f2576040517f08c379a00000000000000000000000000000000000000000000000000000000081526004016101e9906106de565b60405180910390fd5b600160008373ffffffffffffffffffffffffffffffffffffffff1673ffffffffffffffffffffffffffffffffffffffff168152602001908152602001600020549050919050565b600073ffffffffffffffffffffffffffffffffffffffff168273ffffffffffffffffffffffffffffffffffffffff16036102a8576040517f08c379a000000000000000000000000000000000000000000000000000000000815260040161029f90610770565b60405180910390fd5b8273ffffffffffffffffffffffffffffffffffffffff166102c8826100d2565b73ffffffffffffffffffffffffffffffffffffffff161461031e576040517f08c379a000000000000000000000000000000000000000000000000000000000815260040161031590610802565b60405180910390fd5b60018060008573ffffffffffffffffffffffffffffffffffffffff1673ffffffffffffffffffffffffffffffffffffffff168152602001908152602001600020600082825461036d9190610851565b9250508190555060018060008473ffffffffffffffffffffffffffffffffffffffff1673ffffffffffffffffffffffffffffffffffffffff16815260200190815260200160002060008282546103c39190610885565b925050819055508160008083815260200190815260200160002060006101000a81548173ffffffffffffffffffffffffffffffffffffffff021916908373ffffffffffffffffffffffffffffffffffffffff160217905550808273ffffffffffffffffffffffffffffffffffffffff168473ffffffffffffffffffffffffffffffffffffffff167fddf252ad1be2c89b69c2b068fc378daa952ba7f163c4a11628f55a4df523b3ef60405160405180910390a4505050565b600080fd5b600073ffffffffffffffffffffffffffffffffffffffff82169050919050565b60006104ab82610480565b9050919050565b6104bb816104a0565b81146104c657600080fd5b50565b6000813590506104d8816104b2565b92915050565b6000819050919050565b6104f1816104de565b81146104fc57600080fd5b50565b60008135905061050e816104e8565b92915050565b60008060006060848603121561052d5761052c61047b565b5b600061053b868287016104c9565b935050602061054c868287016104c9565b925050604061055d868287016104ff565b9150509250925092565b60006020828403121561057d5761057c61047b565b5b600061058b848285016104ff565b91505092915050565b61059d816104a0565b82525050565b60006020820190506105b86000830184610594565b92915050565b6000602082840312156105d4576105d361047b565b5b60006105e2848285016104c9565b91505092915050565b6105f4816104de565b82525050565b600060208201905061060f60008301846105eb565b92915050565b600082825260208201905092915050565b7f6f776e657220717565727920666f72204e4f4e452d657869737420746f6b656e600082015250565b600061065c602083610615565b915061066782610626565b602082019050919050565b6000602082019050818103600083015261068b8161064f565b9050919050565b7f6f776e657220717565727920666f72204e4f4e45657869737420746f6b656e00600082015250565b60006106c8601f83610615565b91506106d382610692565b602082019050919050565b600060208201905081810360008301526106f7816106bb565b9050919050565b7f4552524f52202d20455243373231205472616e7366657220746f20746865207a60008201527f65726f2061646472657373210000000000000000000000000000000000000000602082015250565b600061075a602c83610615565b9150610765826106fe565b604082019050919050565b600060208201905081810360008301526107898161074d565b9050919050565b7f547279696e6720746f207472616e73666572206120746f6b656e20746865206160008201527f64647265737320646f7365206e6f74206f776e21000000000000000000000000602082015250565b60006107ec603483610615565b91506107f782610790565b604082019050919050565b6000602082019050818103600083015261081b816107df565b9050919050565b7f4e487b7100000000000000000000000000000000000000000000000000000000600052601160045260246000fd5b600061085c826104de565b9150610867836104de565b925082820390508181111561087f5761087e610822565b5b92915050565b6000610890826104de565b915061089b836104de565b92508282019050808211156108b3576108b2610822565b5b9291505056fea2646970667358221220577105bd60de65a64d318242db68338d7517fc1dd1a9cb5f8053547b7fe587c864736f6c63430008130033",
  "immutableReferences": {},
  "source": "// SPDX-License-Identifier: MIT\r\npragma solidity ^0.8.0;\r\n\r\n    /*\r\n        mint     \r\n        1. nft  \r\n        2.  ID \r\n        3.   NFT   ID     =>  mapping \r\n        4.    NFT  \r\n        5.     ->   \r\n             ,  , ID\r\n    */\r\n\r\n    // solidity  mapping -    \r\ncontract ERC721{\r\n\r\n    //  1.   \r\n    // 2.   \r\n    //  \r\n    event Transfer(\r\n        address indexed from, \r\n        address indexed to, \r\n        uint256 indexed tokenId\r\n        );\r\n    \r\n    // uint == uint256\r\n    // ID   \r\n    mapping (uint => address) private _tokenOwner;\r\n\r\n    //      \r\n    mapping (address => uint) private _OwnedTokensCount; \r\n\r\n    // ID    \r\n    mapping(uint256 => address) private _tokenApprovals;\r\n\r\n    //    nft   \r\n    function balanceOf(address _owner) public view returns(uint256){\r\n        require(_owner != address(0), 'owner query for NONEexist token');\r\n        return _OwnedTokensCount[_owner];\r\n    } \r\n\r\n    // NFT   0   nft \r\n    function ownerOf(uint256 _tokenId) public view returns(address){\r\n        address owner = _tokenOwner[_tokenId];\r\n        require(owner != address(0), 'owner query for NONE-exist token');\r\n        return owner;\r\n    }\r\n\r\n\r\n    //  ID   \r\n    // internal  truffle console   => balanceOf  \r\n    function _exist(uint tokenId) internal view returns(bool){\r\n        // nft   , mapping    \r\n        address owner = _tokenOwner[tokenId];\r\n        //  0  true\r\n        return owner != address(0); \r\n    }\r\n\r\n    //      \r\n    function _mint(address to, uint256 tokenId) internal virtual {\r\n        //    0 \r\n        require(to != address(0), 'ERC721: minting to the zero address');\r\n        // ID   \r\n        require(!_exist(tokenId), 'ERC721: token already minted!'); \r\n        // mint  tokenID   \r\n        _tokenOwner[tokenId] = to;\r\n        _OwnedTokensCount[to] += 1;\r\n\r\n        // Transfer   \r\n        emit Transfer(address(0), to, tokenId);\r\n    } \r\n\r\n    // NFT  \r\n    // _from    \r\n    // _to  0 \r\n    function _transferFrom(address _from, address _to, uint256 _tokenId) internal {\r\n        // ID   \r\n        // _to    \r\n        //      \r\n        require(_to != address(0), 'ERROR - ERC721 Transfer to the zero address!');\r\n        //require(_from == _tokenOwner[_tokenId], 'ERROR - you are Not token owner');\r\n        require(ownerOf(_tokenId) == _from, 'Trying to transfer a token the address dose not own!');\r\n       \r\n        _OwnedTokensCount[_from] -= 1;\r\n        _OwnedTokensCount[_to] += 1;\r\n        _tokenOwner[_tokenId] = _to;\r\n\r\n        emit Transfer(_from, _to, _tokenId);\r\n    }\r\n\r\n    function transferFrom(address _from,address _to,uint256 _tokenId) public {\r\n        _transferFrom(_from, _to, _tokenId);\r\n    }\r\n\r\n}",
  "sourcePath": "C:\\Users\\wkdeh\\Desktop\\NFT_market\\src\\contracts\\ERC721.sol",
  "compiler": {
    "name": "solc",
    "version": "0.8.19+commit.7dd6d404.Emscripten.clang"
  },
  "schemaVersion": "3.4.14",
  "updatedAt": "2023-06-22T13:02:49.627Z",
  "devdoc": {
    "kind": "dev",
    "methods": {},
    "version": 1
  },
  "userdoc": {
    "kind": "user",
    "methods": {},
    "version": 1
  }
}