{
  "contractName": "KryptoBird",
  "abi": [
    {
      "inputs": [],
      "stateMutability": "nonpayable",
      "type": "constructor"
    },
    {
      "anonymous": false,
      "inputs": [
        {
          "indexed": true,
          "internalType": "address",
          "name": "_from",
          "type": "address"
        },
        {
          "indexed": true,
          "internalType": "address",
          "name": "_to",
          "type": "address"
        },
        {
          "indexed": true,
          "internalType": "uint256",
          "name": "_tokenId",
          "type": "uint256"
        }
      ],
      "name": "Transfer",
      "type": "event"
    },
    {
      "inputs": [
        {
          "internalType": "address",
          "name": "_owner",
          "type": "address"
        }
      ],
      "name": "balanceOf",
      "outputs": [
        {
          "internalType": "uint256",
          "name": "",
          "type": "uint256"
        }
      ],
      "stateMutability": "view",
      "type": "function",
      "constant": true
    },
    {
      "inputs": [
        {
          "internalType": "uint256",
          "name": "",
          "type": "uint256"
        }
      ],
      "name": "kryptoBirdz",
      "outputs": [
        {
          "internalType": "string",
          "name": "",
          "type": "string"
        }
      ],
      "stateMutability": "view",
      "type": "function",
      "constant": true
    },
    {
      "inputs": [],
      "name": "name",
      "outputs": [
        {
          "internalType": "string",
          "name": "",
          "type": "string"
        }
      ],
      "stateMutability": "view",
      "type": "function",
      "constant": true
    },
    {
      "inputs": [
        {
          "internalType": "uint256",
          "name": "_tokenId",
          "type": "uint256"
        }
      ],
      "name": "ownerOf",
      "outputs": [
        {
          "internalType": "address",
          "name": "",
          "type": "address"
        }
      ],
      "stateMutability": "view",
      "type": "function",
      "constant": true
    },
    {
      "inputs": [
        {
          "internalType": "bytes4",
          "name": "interfaceID",
          "type": "bytes4"
        }
      ],
      "name": "supportsInterface",
      "outputs": [
        {
          "internalType": "bool",
          "name": "",
          "type": "bool"
        }
      ],
      "stateMutability": "view",
      "type": "function",
      "constant": true
    },
    {
      "inputs": [],
      "name": "symbol",
      "outputs": [
        {
          "internalType": "string",
          "name": "",
          "type": "string"
        }
      ],
      "stateMutability": "view",
      "type": "function",
      "constant": true
    },
    {
      "inputs": [
        {
          "internalType": "uint256",
          "name": "index",
          "type": "uint256"
        }
      ],
      "name": "tokenByIndex",
      "outputs": [
        {
          "internalType": "uint256",
          "name": "",
          "type": "uint256"
        }
      ],
      "stateMutability": "view",
      "type": "function",
      "constant": true
    },
    {
      "inputs": [
        {
          "internalType": "address",
          "name": "owner",
          "type": "address"
        },
        {
          "internalType": "uint256",
          "name": "index",
          "type": "uint256"
        }
      ],
      "name": "tokenOfOwnerByIndex",
      "outputs": [
        {
          "internalType": "uint256",
          "name": "",
          "type": "uint256"
        }
      ],
      "stateMutability": "view",
      "type": "function",
      "constant": true
    },
    {
      "inputs": [],
      "name": "totalSupply",
      "outputs": [
        {
          "internalType": "uint256",
          "name": "",
          "type": "uint256"
        }
      ],
      "stateMutability": "view",
      "type": "function",
      "constant": true
    },
    {
      "inputs": [
        {
          "internalType": "address",
          "name": "_from",
          "type": "address"
        },
        {
          "internalType": "address",
          "name": "_to",
          "type": "address"
        },
        {
          "internalType": "uint256",
          "name": "_tokenId",
          "type": "uint256"
        }
      ],
      "name": "transferFrom",
      "outputs": [],
      "stateMutability": "nonpayable",
      "type": "function"
    },
    {
      "inputs": [
        {
          "internalType": "string",
          "name": "_kryptoBird",
          "type": "string"
        }
      ],
      "name": "mint",
      "outputs": [],
      "stateMutability": "nonpayable",
      "type": "function"
    }
  ],
  "bytecode": "0x60806040523480156200001157600080fd5b506040518060400160405280600a81526020017f4b727970746f42697264000000000000000000000000000000000000000000008152506040518060400160405280600681526020017f4b424952445a00000000000000000000000000000000000000000000000000008152508181620000b17f01ffc9a7a5cef8baa21ed3c5c0d7e23accb804b619e9333b597f47a0d84076e26200021c60201b60201c565b620001047f13b182f4c0e5b2efbac0efe6cf6d756c8b89f4b79c5707a043ed9ea740574ee97f7feaf19471f34a12a7eaf32d5f3090aa2260ea8624dc8a138e74e0bf0f623076186200021c60201b60201c565b81600190816200011591906200056d565b5080600290816200012791906200056d565b5050506200019f7f22c82707ba960a14c7592ffb6b8cfaa073fed0048a84cc7fa41f6b5bd8e7f2e47f15725c1ab0554773cbe3abaa8e0afa8455704d1d0f38179f07d62f84e389cbd67f8a7e378434598edc36d108689a030cbc9d7d465de4f74c71bae1028eed6a881b18186200021c60201b60201c565b620002147f8230223f691b981717299fae9549350a0d894555723531f02108b1f522c1a7977f6da5e1284143cdd2d15038a59bde3be031250f00291d64494c12d967b3a4e0c37fc53637662700e6c65104059db8bba34439e0c32483ab7c34e3ccae52c739549518186200021c60201b60201c565b5050620006fd565b63ffffffff60e01b817bffffffffffffffffffffffffffffffffffffffffffffffffffffffff19160362000287576040517f08c379a00000000000000000000000000000000000000000000000000000000081526004016200027e90620006db565b60405180910390fd5b6001600080837bffffffffffffffffffffffffffffffffffffffffffffffffffffffff19167bffffffffffffffffffffffffffffffffffffffffffffffffffffffff1916815260200190815260200160002060006101000a81548160ff02191690831515021790555050565b600081519050919050565b7f4e487b7100000000000000000000000000000000000000000000000000000000600052604160045260246000fd5b7f4e487b7100000000000000000000000000000000000000000000000000000000600052602260045260246000fd5b600060028204905060018216806200037557607f821691505b6020821081036200038b576200038a6200032d565b5b50919050565b60008190508160005260206000209050919050565b60006020601f8301049050919050565b600082821b905092915050565b600060088302620003f57fffffffffffffffffffffffffffffffffffffffffffffffffffffffffffffffff82620003b6565b620004018683620003b6565b95508019841693508086168417925050509392505050565b6000819050919050565b6000819050919050565b60006200044e62000448620004428462000419565b62000423565b62000419565b9050919050565b6000819050919050565b6200046a836200042d565b62000482620004798262000455565b848454620003c3565b825550505050565b600090565b620004996200048a565b620004a68184846200045f565b505050565b5b81811015620004ce57620004c26000826200048f565b600181019050620004ac565b5050565b601f8211156200051d57620004e78162000391565b620004f284620003a6565b8101602085101562000502578190505b6200051a6200051185620003a6565b830182620004ab565b50505b505050565b600082821c905092915050565b6000620005426000198460080262000522565b1980831691505092915050565b60006200055d83836200052f565b9150826002028217905092915050565b6200057882620002f3565b67ffffffffffffffff811115620005945762000593620002fe565b5b620005a082546200035c565b620005ad828285620004d2565b600060209050601f831160018114620005e55760008415620005d0578287015190505b620005dc85826200054f565b8655506200064c565b601f198416620005f58662000391565b60005b828110156200061f57848901518255600182019150602085019450602081019050620005f8565b868310156200063f57848901516200063b601f8916826200052f565b8355505b6001600288020188555050505b505050505050565b600082825260208201905092915050565b7f455243313635202d20496e7661696c6420696e7465726661636520726571756560008201527f7374210000000000000000000000000000000000000000000000000000000000602082015250565b6000620006c360238362000654565b9150620006d08262000665565b604082019050919050565b60006020820190508181036000830152620006f681620006b4565b9050919050565b611b44806200070d6000396000f3fe608060405234801561001057600080fd5b50600436106100a95760003560e01c80634f6ccce7116100715780634f6ccce7146101665780636352211e1461019657806370a08231146101c657806393ab6e56146101f657806395d89b4114610226578063d85d3d2714610244576100a9565b806301ffc9a7146100ae57806306fdde03146100de57806318160ddd146100fc57806323b872dd1461011a5780632f745c5914610136575b600080fd5b6100c860048036038101906100c39190610e4b565b610260565b6040516100d59190610e93565b60405180910390f35b6100e66102c7565b6040516100f39190610f3e565b60405180910390f35b610104610359565b6040516101119190610f79565b60405180910390f35b610134600480360381019061012f919061101e565b610366565b005b610150600480360381019061014b9190611071565b610376565b60405161015d9190610f79565b60405180910390f35b610180600480360381019061017b91906110b1565b610426565b60405161018d9190610f79565b60405180910390f35b6101b060048036038101906101ab91906110b1565b610497565b6040516101bd91906110ed565b60405180910390f35b6101e060048036038101906101db9190611108565b610548565b6040516101ed9190610f79565b60405180910390f35b610210600480360381019061020b91906110b1565b6105ff565b60405161021d9190610f3e565b60405180910390f35b61022e6106ab565b60405161023b9190610f3e565b60405180910390f35b61025e6004803603810190610259919061126a565b61073d565b005b6000806000837bffffffffffffffffffffffffffffffffffffffffffffffffffffffff19167bffffffffffffffffffffffffffffffffffffffffffffffffffffffff1916815260200190815260200160002060009054906101000a900460ff169050919050565b6060600180546102d6906112e2565b80601f0160208091040260200160405190810160405280929190818152602001828054610302906112e2565b801561034f5780601f106103245761010080835404028352916020019161034f565b820191906000526020600020905b81548152906001019060200180831161033257829003601f168201915b5050505050905090565b6000600680549050905090565b610371838383610839565b505050565b600061038183610548565b82106103c2576040517f08c379a00000000000000000000000000000000000000000000000000000000081526004016103b99061135f565b60405180910390fd5b600860008473ffffffffffffffffffffffffffffffffffffffff1673ffffffffffffffffffffffffffffffffffffffff16815260200190815260200160002082815481106104135761041261137f565b5b9060005260206000200154905092915050565b6000610430610359565b8210610471576040517f08c379a0000000000000000000000000000000000000000000000000000000008152600401610468906113fa565b60405180910390fd5b600682815481106104855761048461137f565b5b90600052602060002001549050919050565b6000806003600084815260200190815260200160002060009054906101000a900473ffffffffffffffffffffffffffffffffffffffff169050600073ffffffffffffffffffffffffffffffffffffffff168173ffffffffffffffffffffffffffffffffffffffff160361053f576040517f08c379a000000000000000000000000000000000000000000000000000000000815260040161053690611466565b60405180910390fd5b80915050919050565b60008073ffffffffffffffffffffffffffffffffffffffff168273ffffffffffffffffffffffffffffffffffffffff16036105b8576040517f08c379a00000000000000000000000000000000000000000000000000000000081526004016105af906114d2565b60405180910390fd5b600460008373ffffffffffffffffffffffffffffffffffffffff1673ffffffffffffffffffffffffffffffffffffffff168152602001908152602001600020549050919050565b600a818154811061060f57600080fd5b90600052602060002001600091509050805461062a906112e2565b80601f0160208091040260200160405190810160405280929190818152602001828054610656906112e2565b80156106a35780601f10610678576101008083540402835291602001916106a3565b820191906000526020600020905b81548152906001019060200180831161068657829003601f168201915b505050505081565b6060600280546106ba906112e2565b80601f01602080910402602001604051908101604052809291908181526020018280546106e6906112e2565b80156107335780601f1061070857610100808354040283529160200191610733565b820191906000526020600020905b81548152906001019060200180831161071657829003601f168201915b5050505050905090565b600b8160405161074d919061152e565b908152602001604051809103902060009054906101000a900460ff16156107a9576040517f08c379a00000000000000000000000000000000000000000000000000000000081526004016107a0906115b7565b60405180910390fd5b600a819080600181540180825580915050600190039060005260206000200160009091909190915090816107dd9190611783565b5060006001600a805490506107f29190611884565b90506107fe3382610a7e565b6001600b83604051610810919061152e565b908152602001604051809103902060006101000a81548160ff0219169083151502179055505050565b600073ffffffffffffffffffffffffffffffffffffffff168273ffffffffffffffffffffffffffffffffffffffff16036108a8576040517f08c379a000000000000000000000000000000000000000000000000000000000815260040161089f9061192a565b60405180910390fd5b8273ffffffffffffffffffffffffffffffffffffffff166108c882610497565b73ffffffffffffffffffffffffffffffffffffffff161461091e576040517f08c379a0000000000000000000000000000000000000000000000000000000008152600401610915906119bc565b60405180910390fd5b6001600460008573ffffffffffffffffffffffffffffffffffffffff1673ffffffffffffffffffffffffffffffffffffffff168152602001908152602001600020600082825461096e9190611884565b925050819055506001600460008473ffffffffffffffffffffffffffffffffffffffff1673ffffffffffffffffffffffffffffffffffffffff16815260200190815260200160002060008282546109c591906119dc565b92505081905550816003600083815260200190815260200160002060006101000a81548173ffffffffffffffffffffffffffffffffffffffff021916908373ffffffffffffffffffffffffffffffffffffffff160217905550808273ffffffffffffffffffffffffffffffffffffffff168473ffffffffffffffffffffffffffffffffffffffff167fddf252ad1be2c89b69c2b068fc378daa952ba7f163c4a11628f55a4df523b3ef60405160405180910390a4505050565b610a888282610a9f565b610a9181610c60565b610a9b8282610ca9565b5050565b600073ffffffffffffffffffffffffffffffffffffffff168273ffffffffffffffffffffffffffffffffffffffff1603610b0e576040517f08c379a0000000000000000000000000000000000000000000000000000000008152600401610b0590611a82565b60405180910390fd5b610b1781610d6d565b15610b57576040517f08c379a0000000000000000000000000000000000000000000000000000000008152600401610b4e90611aee565b60405180910390fd5b816003600083815260200190815260200160002060006101000a81548173ffffffffffffffffffffffffffffffffffffffff021916908373ffffffffffffffffffffffffffffffffffffffff1602179055506001600460008473ffffffffffffffffffffffffffffffffffffffff1673ffffffffffffffffffffffffffffffffffffffff1681526020019081526020016000206000828254610bf991906119dc565b92505081905550808273ffffffffffffffffffffffffffffffffffffffff16600073ffffffffffffffffffffffffffffffffffffffff167fddf252ad1be2c89b69c2b068fc378daa952ba7f163c4a11628f55a4df523b3ef60405160405180910390a45050565b6006805490506007600083815260200190815260200160002081905550600681908060018154018082558091505060019003906000526020600020016000909190919091505550565b600860008373ffffffffffffffffffffffffffffffffffffffff1673ffffffffffffffffffffffffffffffffffffffff168152602001908152602001600020805490506009600083815260200190815260200160002081905550600860008373ffffffffffffffffffffffffffffffffffffffff1673ffffffffffffffffffffffffffffffffffffffff1681526020019081526020016000208190806001815401808255809150506001900390600052602060002001600090919091909150555050565b6000806003600084815260200190815260200160002060009054906101000a900473ffffffffffffffffffffffffffffffffffffffff169050600073ffffffffffffffffffffffffffffffffffffffff168173ffffffffffffffffffffffffffffffffffffffff161415915050919050565b6000604051905090565b600080fd5b600080fd5b60007fffffffff0000000000000000000000000000000000000000000000000000000082169050919050565b610e2881610df3565b8114610e3357600080fd5b50565b600081359050610e4581610e1f565b92915050565b600060208284031215610e6157610e60610de9565b5b6000610e6f84828501610e36565b91505092915050565b60008115159050919050565b610e8d81610e78565b82525050565b6000602082019050610ea86000830184610e84565b92915050565b600081519050919050565b600082825260208201905092915050565b60005b83811015610ee8578082015181840152602081019050610ecd565b60008484015250505050565b6000601f19601f8301169050919050565b6000610f1082610eae565b610f1a8185610eb9565b9350610f2a818560208601610eca565b610f3381610ef4565b840191505092915050565b60006020820190508181036000830152610f588184610f05565b905092915050565b6000819050919050565b610f7381610f60565b82525050565b6000602082019050610f8e6000830184610f6a565b92915050565b600073ffffffffffffffffffffffffffffffffffffffff82169050919050565b6000610fbf82610f94565b9050919050565b610fcf81610fb4565b8114610fda57600080fd5b50565b600081359050610fec81610fc6565b92915050565b610ffb81610f60565b811461100657600080fd5b50565b60008135905061101881610ff2565b92915050565b60008060006060848603121561103757611036610de9565b5b600061104586828701610fdd565b935050602061105686828701610fdd565b925050604061106786828701611009565b9150509250925092565b6000806040838503121561108857611087610de9565b5b600061109685828601610fdd565b92505060206110a785828601611009565b9150509250929050565b6000602082840312156110c7576110c6610de9565b5b60006110d584828501611009565b91505092915050565b6110e781610fb4565b82525050565b600060208201905061110260008301846110de565b92915050565b60006020828403121561111e5761111d610de9565b5b600061112c84828501610fdd565b91505092915050565b600080fd5b600080fd5b7f4e487b7100000000000000000000000000000000000000000000000000000000600052604160045260246000fd5b61117782610ef4565b810181811067ffffffffffffffff821117156111965761119561113f565b5b80604052505050565b60006111a9610ddf565b90506111b5828261116e565b919050565b600067ffffffffffffffff8211156111d5576111d461113f565b5b6111de82610ef4565b9050602081019050919050565b82818337600083830152505050565b600061120d611208846111ba565b61119f565b9050828152602081018484840111156112295761122861113a565b5b6112348482856111eb565b509392505050565b600082601f83011261125157611250611135565b5b81356112618482602086016111fa565b91505092915050565b6000602082840312156112805761127f610de9565b5b600082013567ffffffffffffffff81111561129e5761129d610dee565b5b6112aa8482850161123c565b91505092915050565b7f4e487b7100000000000000000000000000000000000000000000000000000000600052602260045260246000fd5b600060028204905060018216806112fa57607f821691505b60208210810361130d5761130c6112b3565b5b50919050565b7f6f776e657220696e646578206973206e6f74206f6620626f756e647321000000600082015250565b6000611349601d83610eb9565b915061135482611313565b602082019050919050565b600060208201905081810360008301526113788161133c565b9050919050565b7f4e487b7100000000000000000000000000000000000000000000000000000000600052603260045260246000fd5b7f676c6f62616c20696e646578206973206e6f74206f6620626f756e6473210000600082015250565b60006113e4601e83610eb9565b91506113ef826113ae565b602082019050919050565b60006020820190508181036000830152611413816113d7565b9050919050565b7f6f776e657220717565727920666f72204e4f4e452d657869737420746f6b656e600082015250565b6000611450602083610eb9565b915061145b8261141a565b602082019050919050565b6000602082019050818103600083015261147f81611443565b9050919050565b7f6f776e657220717565727920666f72204e4f4e45657869737420746f6b656e00600082015250565b60006114bc601f83610eb9565b91506114c782611486565b602082019050919050565b600060208201905081810360008301526114eb816114af565b9050919050565b600081905092915050565b600061150882610eae565b61151281856114f2565b9350611522818560208601610eca565b80840191505092915050565b600061153a82846114fd565b915081905092915050565b7f4572726f72202d206b727970746f4269726420616c726561647920657869737460008201527f7300000000000000000000000000000000000000000000000000000000000000602082015250565b60006115a1602183610eb9565b91506115ac82611545565b604082019050919050565b600060208201905081810360008301526115d081611594565b9050919050565b60008190508160005260206000209050919050565b60006020601f8301049050919050565b600082821b905092915050565b6000600883026116397fffffffffffffffffffffffffffffffffffffffffffffffffffffffffffffffff826115fc565b61164386836115fc565b95508019841693508086168417925050509392505050565b6000819050919050565b600061168061167b61167684610f60565b61165b565b610f60565b9050919050565b6000819050919050565b61169a83611665565b6116ae6116a682611687565b848454611609565b825550505050565b600090565b6116c36116b6565b6116ce818484611691565b505050565b5b818110156116f2576116e76000826116bb565b6001810190506116d4565b5050565b601f82111561173757611708816115d7565b611711846115ec565b81016020851015611720578190505b61173461172c856115ec565b8301826116d3565b50505b505050565b600082821c905092915050565b600061175a6000198460080261173c565b1980831691505092915050565b60006117738383611749565b9150826002028217905092915050565b61178c82610eae565b67ffffffffffffffff8111156117a5576117a461113f565b5b6117af82546112e2565b6117ba8282856116f6565b600060209050601f8311600181146117ed57600084156117db578287015190505b6117e58582611767565b86555061184d565b601f1984166117fb866115d7565b60005b82811015611823578489015182556001820191506020850194506020810190506117fe565b86831015611840578489015161183c601f891682611749565b8355505b6001600288020188555050505b505050505050565b7f4e487b7100000000000000000000000000000000000000000000000000000000600052601160045260246000fd5b600061188f82610f60565b915061189a83610f60565b92508282039050818111156118b2576118b1611855565b5b92915050565b7f4552524f52202d20455243373231205472616e7366657220746f20746865207a60008201527f65726f2061646472657373210000000000000000000000000000000000000000602082015250565b6000611914602c83610eb9565b915061191f826118b8565b604082019050919050565b6000602082019050818103600083015261194381611907565b9050919050565b7f547279696e6720746f207472616e73666572206120746f6b656e20746865206160008201527f64647265737320646f7365206e6f74206f776e21000000000000000000000000602082015250565b60006119a6603483610eb9565b91506119b18261194a565b604082019050919050565b600060208201905081810360008301526119d581611999565b9050919050565b60006119e782610f60565b91506119f283610f60565b9250828201905080821115611a0a57611a09611855565b5b92915050565b7f4552433732313a206d696e74696e6720746f20746865207a65726f206164647260008201527f6573730000000000000000000000000000000000000000000000000000000000602082015250565b6000611a6c602383610eb9565b9150611a7782611a10565b604082019050919050565b60006020820190508181036000830152611a9b81611a5f565b9050919050565b7f4552433732313a20746f6b656e20616c7265616479206d696e74656421000000600082015250565b6000611ad8601d83610eb9565b9150611ae382611aa2565b602082019050919050565b60006020820190508181036000830152611b0781611acb565b905091905056fea264697066735822122003d5e908613dec2ae07f4b8ed55a9c066add4f713ac46738cce20d5e8e316f6364736f6c63430008130033",
  "immutableReferences": {},
  "source": "// SPDX-License-Identifier: MIT\r\npragma solidity ^0.8.0; \r\n// \r\n// https://eips.ethereum.org/EIPS/eip-721\r\n\r\nimport './ERC721Connector.sol';\r\n\r\n// KryptoBird  \r\n//   , 721     \r\ncontract KryptoBird is ERC721Connector{\r\n\r\n    // nft  \r\n    string[] public kryptoBirdz;\r\n\r\n    //      \r\n    // id    \r\n    //          map  \r\n    mapping(string => bool) _kryptoBirdzExists;\r\n\r\n    //  _mint    nft   \r\n    function mint(string memory _kryptoBird) public{\r\n        //     \r\n        require(!_kryptoBirdzExists[_kryptoBird], 'Error - kryptoBird already exists');\r\n        // uint _id = KryptoBirdz.push(_kryptoBird);\r\n        // push  0.6    .\r\n        // .push :         ,    \r\n\r\n        kryptoBirdz.push(_kryptoBird);\r\n        uint _id = kryptoBirdz.length - 1;\r\n\r\n        _mint(msg.sender, _id);\r\n\r\n        _kryptoBirdzExists[_kryptoBird] = true;\r\n    }\r\n\r\n    constructor() ERC721Connector('KryptoBird', 'KBIRDZ') {\r\n\r\n    }\r\n\r\n}",
  "sourcePath": "C:\\Users\\wkdeh\\Desktop\\NFT_market\\src\\contracts\\KryptoBirdz.sol",
  "compiler": {
    "name": "solc",
    "version": "0.8.19+commit.7dd6d404.Emscripten.clang"
  },
  "schemaVersion": "3.4.14",
  "updatedAt": "2023-06-24T18:00:03.049Z",
  "networkType": "ethereum",
  "devdoc": {
    "kind": "dev",
    "methods": {
      "supportsInterface(bytes4)": {
        "details": "Interface identification is specified in ERC-165. This function  uses less than 30,000 gas.",
        "params": {
          "interfaceID": "The interface identifier, as specified in ERC-165"
        },
        "returns": {
          "_0": "`true` if the contract implements `interfaceID` and  `interfaceID` is not 0xffffffff, `false` otherwise"
        }
      }
    },
    "version": 1
  },
  "userdoc": {
    "kind": "user",
    "methods": {
      "supportsInterface(bytes4)": {
        "notice": "Query if a contract implements an interface"
      }
    },
    "version": 1
  }
}